{
  "contractName": "SimpleStorage",
  "abi": [
    {
      "constant": false,
      "inputs": [
        {
          "name": "x",
          "type": "string"
        },
        {
          "name": "y",
          "type": "int256"
        }
      ],
      "name": "setIoT",
      "outputs": [],
      "payable": false,
      "stateMutability": "nonpayable",
      "type": "function"
    },
    {
      "constant": true,
      "inputs": [
        {
          "name": "x",
          "type": "string"
        }
      ],
      "name": "getIoTDeviceCheckSum",
      "outputs": [
        {
          "name": "",
          "type": "int256"
        }
      ],
      "payable": false,
      "stateMutability": "view",
      "type": "function"
    },
    {
      "constant": false,
      "inputs": [
        {
          "name": "x",
          "type": "uint256"
        }
      ],
      "name": "set",
      "outputs": [],
      "payable": false,
      "stateMutability": "nonpayable",
      "type": "function"
    },
    {
      "constant": true,
      "inputs": [],
      "name": "get",
      "outputs": [
        {
          "name": "",
          "type": "uint256"
        }
      ],
      "payable": false,
      "stateMutability": "view",
      "type": "function"
    }
  ],
  "bytecode": "0x608060405234801561001057600080fd5b50610470806100206000396000f300608060405260043610610062576000357c0100000000000000000000000000000000000000000000000000000000900463ffffffff168063140c2a621461006757806360fe47b1146100da5780636d4ce63c14610107578063a01a75c014610132575b600080fd5b34801561007357600080fd5b506100d8600480360381019080803590602001908201803590602001908080601f0160208091040260200160405190810160405280939291908181526020018383808284378201915050505050509192919290803590602001909291905050506101af565b005b3480156100e657600080fd5b506101056004803603810190808035906020019092919050505061021f565b005b34801561011357600080fd5b5061011c610229565b6040518082815260200191505060405180910390f35b34801561013e57600080fd5b50610199600480360381019080803590602001908201803590602001908080601f0160208091040260200160405190810160405280939291908181526020018383808284378201915050505050509192919290505050610232565b6040518082815260200191505060405180910390f35b600160408051908101604052808481526020018381525090806001815401808255809150509060018203906000526020600020906002020160009091929091909150600082015181600001908051906020019061020d92919061039f565b50602082015181600101555050505050565b8060008190555050565b60008054905090565b600080600090505b6001805490508110156103755760018181548110151561025657fe5b906000526020600020906002020160000160405180828054600181600116156101000203166002900480156102c25780601f106102a05761010080835404028352918201916102c2565b820191906000526020600020905b8154815290600101906020018083116102ae575b5050915050604051809103902060001916836040518082805190602001908083835b60208310151561030957805182526020820191506020810190506020830392506102e4565b6001836020036101000a03801982511681845116808217855250505050505090500191505060405180910390206000191614156103685760018181548110151561034f57fe5b9060005260206000209060020201600101549150610399565b808060010191505061023a565b7fffffffffffffffffffffffffffffffffffffffffffffffffffffffffffffffff91505b50919050565b828054600181600116156101000203166002900490600052602060002090601f016020900481019282601f106103e057805160ff191683800117855561040e565b8280016001018555821561040e579182015b8281111561040d5782518255916020019190600101906103f2565b5b50905061041b919061041f565b5090565b61044191905b8082111561043d576000816000905550600101610425565b5090565b905600a165627a7a72305820643f5598e73ee07e65cfaec14c2f58a4c5c746a9f89243e886fc009fe371b1a20029",
  "source": "pragma solidity ^0.4.17;\n\ncontract SimpleStorage {\n  uint myVariable;\n  struct IoTDevice {\n    string Name;\n    int CheckSum;\n  }\n  IoTDevice[] devices;\n\n  function setIoT(string x, int y) public {\n    devices.push(IoTDevice({Name: x, CheckSum: y}));\n  }\n  function getIoTDeviceCheckSum(string x) constant public returns (int) {\n    uint i;\n    for( i=0; i<devices.length ; i++) {\n      if( keccak256(x) == keccak256(devices[i].Name) ){\n        return devices[i].CheckSum;\n      }\n    }\n    return -1;\n  }\n\n  function set(uint x) public {\n    myVariable = x;\n  }\n\n\n  function get() constant public returns (uint) {\n    return myVariable;\n  }\n}\n",
  "sourcePath": "/home/wonseok/바탕화면/SQUAD/simple-storage/contracts/Store.sol",
  "compiler": {
    "name": "solc",
    "version": "0.4.23+commit.124ca40d.Emscripten.clang"
  },
  "schemaVersion": "2.0.0",
  "updatedAt": "2018-05-28T11:31:01.084Z"
}